:10092600203D3D3D52464944204C4F434B3D3D3DC5
:100936000020446F6F72206973204C6F636B65648F
:1009460000205363616E20596F7572204361726493
:100956000050726F63657373696E672043617264DA
:10096600002A0041413230303635323730353200D8
:10097600204361726420416363657074656421007D
:10098600203D446F6F7220556E6C6F636B65643DDE
:10099600004361726420646F6E2774206578697302
:1009A600740054727920416E6F74686572204361D9
:0309B60072640068
:030B90000115004C
:10080000120B67120B537BFF7A097926120AEB7FD2
:10081000C0120B297BFF7A097937120AEB7FF47E2D
:1008200001120ABA7F01120B297BFF7A097947125C
:100830000AEBE4F516F516AF16EF3395E0FEC3EFBD
:10084000940CEE64809480500E120B73740825167D
:10085000F8A607051680E074082516F8E4F67F016F
:10086000120B297BFF7A097957120AEB7FC0120B12
:1008700029E4F516AF16EF3395E0FEC3EF940CEEC6
:1008800064809480500D7BFF7A097967120AEB052A
:100890001680E17F647E00120ABA751AFF751B0983
:1008A000751C69751D00751E0C7B007A0079081295
:1008B0000A45EF3395E04F70477F01120B297BFF0C
:1008C0007A097976120AEB7F2C7E01120ABA7F012F
:1008D000120B297BFF7A097986120AEB7FC87E000A
:1008E000120ABAD293C2927FF47E01120ABAC2935C
:1008F000D2927F907E01120ABAC293C29202082459
:100900007F01120B297BFF7A097997120AEB7FC0CE
:10091000120B297BFF7A0979A8120AEB7F2C7E0142
:06092000120ABA020824CD
:0B0B73003098FD859915C298AF15223F
:060AB400D2A27F057E00C6
:100ABA00D3EF9400EE6480948040257DFAEDD394C0
:100ACA00007480948040031D80F37DF8EDD3940078
:100ADA007480948040031D80F3EF1F70D31E80D072
:010AEA0022E9
:100B29008F17E51754F0F5A0120B88E517C454F098
:050B3900F5A0020B888D
:100B3E008F1AE51A54F0F5A0120B7EE51AC454F084
:050B4E00F5A0020B7E82
:100AEB008B178A188919AB17AA18A919120B106042
:100AFB00130519E5197002051814F9120B10FF12E2
:050B0B000B3E80E22218
:0A0B7E00D2A0C2A1120AB4C2A22242
:080B8800C2A0120AB4C2A222AD
:100B53007F02120B297F28120B297F0E120B297F8C
:040B630001020B2957
:0C0B6700758920759850758DFDD28E2286
:030000000209B939
:0C09B900787FE4F6D8FD75811E020A006C
:100B1000BB010689828A83E0225002E722BBFE02E3
:090B2000E32289828A83E4932216
:100A45008B178A188919AB1AAA1BA91C120B10FE41
:100A5500AB17AA18A919120B10FF6E702BEF600DBA
:100A6500E51E151E7002151D14451D70037F00221D
:100A750074012519F519E43518F5187401251CF5C7
:100A85001CE4351BF51B80BEAB17AA18A919120B60
:100A950010FDD3EE6480F8ED64809840037F012259
:0F0AA500AB1AAA1BA91C120B10FFC3ED9FFF2257
:1009C500020800E493A3F8E493A34003F68001F240
:1009D50008DFF48029E493A3F85407240CC8C33333
:1009E500C4540F4420C8834004F456800146F6DF02
:1009F500E4800B0102040810204080900B90E47EF7
:100A0500019360BCA3FF543F30E509541FFEE493F6
:100A1500A360010ECF54C025E060A840B8E493A3BD
:100A2500FAE493A3F8E493A3C8C582C8CAC583CAE8
:100A3500F0A3C8C582C8CAC583CADFE9DEE780BEA0
:010B93000061
:00000001FF
