:100CDE002D2D2D524649442042617365642D2D2DD4
:100CEE0000417474656E64616E63652050726F6A44
:100CFE00002D2D5374756479456C65637472696348
:100D0E002D2D002D2D2D2D546563682E636F6D2DA9
:100D1E002D2D2D005363616E20596F757220436126
:100D2E0072643A0052666964204E6F2E2069733ADF
:100D3E0000313030333541443835364331002041AF
:100D4E00747474656E6465640020456E672E4D6F15
:100D5E0068616D656420004174746E642E204E6F60
:100D6E002E3A20002564004361726420646F6E2762
:100D7E00742065786973740054727920416E6F74B3
:090D8E0068657220436172640083
:030FF900013600BE
:060F2000D2927F057E0065
:100F2600E4FDFCC3ED9FEE6480F8EC6480985015F8
:100F3600E4FBFA0BBB00010ABA04F8BBFBF50DBDD6
:050F460000010C80DE3B
:010F4B002283
:0A0FE700D290C291120F20C2922294
:100FAA00A907E954F0F590120FE7E9C454F0F59057
:030FBA00020FE73C
:080FF100C290120F20C29222EF
:100FBD00A907E954F0F590120FF1E9C454F0F5903A
:030FCD00020FF11F
:100F73008B088A09890AAB08AA09A90A120D97FFE7
:100F83006010120FAA7401250AF50AE43509F50960
:030F930080E422D5
:100F96007F02120FBD7F28120FBD7F0E120FBD7F7D
:040FA60001020FBD78
:0C0FD000758920759850758DFDD28E2219
:0B0FDC003098FD859936C298AF362290
:100B5C00D2A6120FD0120F967BFF7A0C79DE120FF1
:100B6C00737FC0120FBD7BFF7A0C79EF120F737F6E
:100B7C00F47E01120F26120F967BFF7A0C79FF126E
:100B8C000F737FC0120FBD7BFF7A0D7911120F739B
:100B9C007F907E01120F267F01120FBD7BFF7A0D15
:100BAC007922120F737FC0120FBDE4F569F569AF9E
:100BBC0069EF3395E0FEC3EF940CEE6480948050A3
:100BCC000E120FDC74232569F8A607056980E07402
:100BDC00232569F8E4F67F01120FBD7BFF7A0D79AE
:100BEC0032120F737FC0120FBDE4F569AF69EF339A
:100BFC0095E0FEC3EF940CEE64809480500D74234A
:100C0C002FF8E6FF120FAA056980E17F647E0012BF
:100C1C000F26750BFF750C0D750D3F750E00750FBE
:100C2C000C7B007A007923120EB1EF3395E04F70F4
:100C3C00770531E531700205307F01120FBD7BFF66
:100C4C007A0D794C120F737FC87E00120F267F012C
:100C5C00120FBD7BFF7A0D7957120F737FC0120FE5
:100C6C00BD7BFF7A0D7965120F73750BFF750C0D3B
:100C7C00750D7285300E85310F7B007A007922124A
:100C8C00085C7B007A007922120F73D2A4C2A37F76
:100C9C00207E03120F26C2A4D2A37FF47E01120F72
:100CAC0026C2A4C2A3020BA37F01120FBD7BFF7A45
:100CBC000D7975120F737FC0120FBD7BFF7A0D7902
:100CCC0086120F73C2A67F2C7E01120F26D2A602AB
:020CDC000BA368
:03000000020E25C8
:0C0E2500787FE4F6D8FD758169020E6C40
:100D9700BB010689828A83E0225002E722BBFE025A
:090DA700E32289828A83E493228D
:10080000E517240BF8E60517227808300702780B65
:10081000E475F001120DEF020D972000EB7F2ED250
:10082000008018EF540F2490D43440D4FF30040BD0
:10083000EF24BFB41A0050032461FFE518600215CD
:1008400018051BE51B7002051A30070D7808E475C2
:10085000F001120DEFEF020DDD020F4C7403D20711
:100860008003E4C207F5178B088A09890AE4F518A2
:10087000F51AF51BE51860077F2012083B80F57517
:1008800019FFC201C200C202C203C205C206C208E9
:10089000120809FF700D3007057F0012084CAF1BCE
:1008A000AE1A22B4255FC2D5C204120809FF24D0B3
:1008B000B40A00501A75F00A781830D50508B6FF4A
:1008C0000106C6A426F620D5047002D20380D924DE
:1008D000CFB41A00EF5004C2E5D204020A4CD20190
:1008E00080C6D20080C0D20280BCD2D580BAD205E8
:1008F00080B47F2012083B2002077401B518004025
:10090000F1120800FF12083B020874D208D20680D8
:1009100095120800FB120800FA120800F94A4B7001
:1009200006791D7A0B7BFF20022EE518602A7E00D7
:100930008E82758300120DB060060EEE651970F0A0
:10094000C2D5EBC0E0EAC0E0E9C0E0EE120A93D005
:10095000E0F9D0E0FAD0E0FB120D97FF60AAEBC0FF
:10096000E0EAC0E0E9C0E012083BD0E02401F9D0A1
:10097000E03400FAD0E0FBE5190460DCD519D98039
:10098000877BFF7A0A798FD202809C791080027966
:1009900008C206C2088008D2D5790A8004790AC242
:1009A000D5E519047002F519E4FAFDFEFF120800FE
:1009B000FC7B08200113120800FD7B1030000A1296
:1009C0000800FE120800FF7B20EC3382D592D55040
:1009D00013C3E43000069FFFE49EFEE42001039D64
:1009E000FDE49CFCE4CBF8C201EC700CCFCECDCC86
:1009F000E824F8F870F38017C3EF33FFEE33FEED11
:100A000033FDEC33FCEB33FB994002FB0FD8E9EBF1
:100A1000300105F8D0E0C448B201C0E00AEC4D4E08
:100A20004F78207B0070C2EAB5190040BCC0E012CC
:100A30000A95D0F0D0E0200104C4C0E0C4B201C0E7
:100A4000F0120824D0F0D5F0EB020874120DFF0963
:100A50001153098B5808E24C08DE42098F4F099761
:0F0A60004409974908F743099D550981460981C3
:100A6F00450981470B3D5008E62D08EA2E090D2B4D
:100A7F0008EE23090B200B262A08A64800000905BB
:100A8F003F3F3F00790AA2D5200314300509B91062
:100A9F00020404B9080104A2D52006025001042063
:100AAF0002689202B518005034C0E07F203003195D
:100ABF007F30A20272067205500F120AECC202C2F8
:100ACF0006C205C2087F30800F300503E9C0E0126F
:100ADF00083B300503D0E0F9D0E0B518CC3005174E
:100AEF007F30B9100C12083B7F583004077F788095
:100AFF0003B9080312083B3002057F2D02083B7F24
:100B0F00202008F87F2B2006F322920280CF286E38
:100B1F00756C6C2900D2011208003001F8C20178FF
:100B2F001830D50108F60208A62D5043495812086F
:100B3F00002403B405004001E4900B389312082CF5
:0D0B4F00743A12082CD20375180402098BA9
:100EB1008B088A09890AAB0BAA0CA90D120D97FEA2
:100EC100AB08AA09A90A120D97FF6E702BEF600DEE
:100ED100E50F150F7002150E14450E70037F0022E9
:100EE1007401250AF50AE43509F5097401250DF5A2
:100EF1000DE4350CF50C80BEAB08AA09A90A120D48
:100F010097FDD3EE6480F8ED64809840037F012261
:0F0F1100AB0BAA0CA90D120D97FFC3ED9FFF228A
:100E3100020B5CE493A3F8E493A34003F68001F270
:100E410008DFF48029E493A3F85407240CC8C333C2
:100E5100C4540F4420C8834004F456800146F6DF91
:100E6100E4800B0102040810204080900FF9E47E19
:100E7100019360BCA3FF543F30E509541FFEE49386
:100E8100A360010ECF54C025E060A840B8E493A34D
:100E9100FAE493A3F8E493A3C8C582C8CAC583CA78
:100EA100F0A3C8C582C8CAC583CADFE9DEE780BE30
:010FFC0000F4
:100DB000BB010CE58229F582E5833AF583E02250F8
:100DC00006E92582F8E622BBFE06E92582F8E22242
:0D0DD000E58229F582E5833AF583E493225C
:100DDD00BB010689828A83F0225002F722BBFE01F5
:020DED00F322EF
:100DEF00FAE6FB0808E6F925F0F618E6CA3AF62205
:100DFF00D083D082F8E4937012740193700DA3A383
:100E0F0093F8740193F5828883E473740293686096
:060E1F00EFA3A3A380DF96
:100F4C00EFB40A07740D120F57740A309811A89950
:100F5C00B8130CC2983098FDA899C298B811F63005
:070F6C0099FDC299F59922DD
:00000001FF
